:03000000021AE4FD
:0C1AE400787FE4F6D8FD758120021655CD
:101A4700202020202020202020202020202020208F
:101A5700000000000000000000000000000000007F
:011A6700007E
:1017F8001211A0EF14B41400400302188B901813B0
:1018080075F003A4C58325F0C5837302184F021829
:101818005202185502185802185B02185E02186125
:1018280002186402186702186A02186D021870021A
:10183800187302187602187902187C02187F0218A9
:10184800820218850218887F31227F32227F332254
:101858007F34227F35227F36227F37227F38227FCE
:1018680039227F30227F28227F29227F2E227F3D26
:10187800227F64227F43227F2B227F2D227F2A22F0
:051888007F2F227FFF0D
:01188D002238
:1016550078007C007D017BFF7A1A79587E007F1027
:10166500120521E4900010F0121AC1121B0C12177A
:10167500F8900011EFF0F460F57F147E00121A97D0
:10168500900011E0B4430FE4900010F0900000F0DA
:10169500121B0C02174F900011E06464703090002B
:1016A50010E0D394004027E014F02400F582E434E0
:1016B50000F583E4F07BFF7A1A79477D017F0112FB
:1016C5001A1A7B017A0079007D017F018043900021
:1016D50011E0643D7040900010E0D39400406B7BB6
:1016E500017A0079001206ED7B017A0079129000EB
:1016F50029E4F0A37410F0120F727BFF7A1A794770
:101705007D017F02121A1A7B017A0079127D017F11
:1017150002121A1A8034900010E0C3940F502BA3C4
:10172500E0FB900010E0FF04F074002FF582E43434
:1017350000F583EBF0900010E0FD2400F582E43421
:1017450000F583E4F07F01121B041211A0EF70FA7B
:091755007F14FE121A97021673AC
:101A9700EF1FAC0670011E4C600A7D027CEFDCFE76
:041AA700DDFC80ECF6
:011AAB002218
:1011A000E4900022F07590FFC2932097167F14FE02
:1011B000121A973097FD7F147E00121A9790002222
:1011C0007401F02096177F147E00121A973096FD56
:1011D0007F147E00121A979000227405F020951754
:1011E0007F147E00121A973095FD7F147E00121A2C
:1011F000979000227409F02094177F147E00121A31
:10120000973094FD7F147E00121A97900022740D7F
:10121000F07590FFC2922097177F147E00121A97E4
:101220003097FD7F147E00121A979000227402F00E
:101230002096177F147E00121A973096FD7F147E39
:1012400000121A979000227406F02095177F147EE2
:1012500000121A973095FD7F147E00121A979000A5
:1012600022740AF02094177F147E00121A9730948B
:10127000FD7F147E00121A97900022740EF0759074
:10128000FFC2912097177F147E00121A973097FDA6
:101290007F147E00121A979000227403F020961794
:1012A0007F147E00121A973096FD7F147E00121A6A
:1012B000979000227407F02095177F147E00121A71
:1012C000973095FD7F147E00121A97900022740BC0
:1012D000F02094177F147E00121A973094FD7F142B
:1012E0007E00121A97900022740FF07590FFC29042
:1012F0002097177F147E00121A973097FD7F147E77
:1013000000121A979000227404F02096177F147E22
:1013100000121A973096FD7F147E00121A979000E3
:10132000227408F02095177F147E00121A973095CA
:10133000FD7F147E00121A97900022740CF0209406
:10134000177F147E00121A973094FD7F147E0012CE
:101350001A979000227410F020B1177F147E0012AB
:101360001A9730B1FD7F147E00121A9790002274F4
:1013700011F020B0177F147E00121A9730B0FD7F55
:10138000147E00121A979000227412F020B2177F78
:10139000147E00121A9730B2FD7F147E00121A9745
:1013A0009000227413F020B3177F147E00121A9756
:1013B00030B3FD7F147E00121A979000227414F04F
:0513C000900022E0FF97
:0113C5002205
:061AD500C2A58F80D2A71C
:081ADB007F027EEFDEFEDFFC5E
:011AE30022E0
:0A1AF000C2A6121AD5C2A7021ADB23
:0A1AFA00D2A6121AD5C2A7021ADB09
:101A6800AE07EEB40104ED148007EEB40209ED24CC
:081A78003F4480FF121AF02226
:101AC1007F38121AF07F0C121AF07F06121AF07F7B
:041AD10001021AF004
:081B0400121A68AF03021AFA7D
:0B1A1A00900022EBF0A3EAF0A3E9F03B
:101A2500121A68E4FD900022E0FBA3E0FAA3E0F9B6
:101A35008D82758300120582FF6006121AFA0D80E9
:011A4500E4BC
:011A4600227D
:0E18F60090009EEEF0A3EFF0A3ECF0A3EDF057
:10190400A3E4F0A304F0E4FBEBFFD39000A1E09F79
:101914007480F89000A0E0648098401E9000A2E0DB
:10192400FEA3E0FF90009EE0FCA3E0FD1205E3901F
:1019340000A2EEF0A3EFF00B80CE9000A2E0FEA395
:02194400E0FFC2
:01194600227E
:0819470090009BEAF0A3EBF015
:10194F00121A68A3E0FAEAD394004031EA24FFFDAB
:10195F00E434FFFC7F0A7E001218F690009BE0FC37
:10196F00A3E0FDCFCDCFCECCCE1205F57C007D0A06
:0D197F001205F5ED2430FF121AFA1A80C986
:01198C002238
:081B0C007F01121AF0021ADB3E
:10198D00000000000000000000000000000000004A
:10199D00000000000000000000000000000000003A
:1019AD00000000000000000000000000000000002A
:1019EC00E0FBA3E0FAA3E0F9EEFF3395E08F82F57C
:0519FC0083120582FFCB
:101A0100EFC394304006EFD394394004EFB42E0570
:091A11007E007F0122E4FEFF22A9
:0E19BD00F9E0FF3395E08F82F583120582FF7B
:1019CB00EF642B6013EF642D600EEF642A6009EF58
:1019DB00642F6004EFB420057E007F0122E4FEFF3C
:0119EB0022D9
:100F7200900022120684900026EBF0A3EAF0A3E987
:010F8200F07E
:100F8300E4FFFEFDFC900022E0F8A3E0F9A3E0FA01
:100F9300A3E0FB1202A1900026E0FBA3E0FAA3E08A
:100FA300F94007742B1205AF801C742D1205AF9006
:100FB3000022E0FCA3E0FDA3E0FEA3E0FF12031A7E
:100FC300900022120684900022E0FCA3E0FDA3E03F
:100FD300FEA3E0FF12036990002BEFF0E4A3F0906F
:100FE300002BE0FF601075F00A12054790002BF00C
:100FF300A3E004F080E9900022E0FCA3E0FDA3E07D
:10100300FEA3E0FF12036990002BEFF0A3E0FFD3F0
:10101300EF64809480403B90002BE0FE75F00A1251
:101023000547AEF0EE2430FE900026E0FBA3E0FA85
:10103300A3E0F9EFFD3395E08D82F583EE1205C150
:1010430090002BE0FE75F00A12054790002BF01F6D
:1010530080BD90002CE0FF3395E0FEEF2401FFE418
:101063003EFE900026E0FBA3E0FAA3E0F98F828E18
:1010730083742E1205C1900022E0FCA3E0FDA3E0DF
:10108300FEA3E0FFC004C005C006C007900022A372
:10109300A3A3E0120369AD07AC06EC120330A80466
:1010A300A905AA06AB07D007D006D005D0041200C5
:1010B3000690002212068490002CE02402F0900097
:1010C3002AE024FFFF900029E034FFFE90002CE08B
:1010D300FD3395E0FCC3ED9FEE6480F8EC648098EB
:1010E3004003021180900022E0FCA3E0FDA3E0FE98
:1010F300A3E0FFE4FBFA792078411200FB90002281
:10110300120684900022E0FCA3E0FDA3E0FEA3E02E
:10111300FF120369EF2430FF900026E0FBA3E0FAFF
:10112300A3E0F990002CE0FD3395E08D82F583EF89
:101133001205C1900022E0FCA3E0FDA3E0FEA3E0C2
:10114300FFC004C005C006C007900022A3A3A3E00C
:10115300120369AD07AC06EC120330A804A905AA73
:1011630006AB07D007D006D005D0041200069000C6
:101173002212068490002CE004F00210C190002695
:10118300E0FBA3E0FAA3E0F990002AE024FFFF903C
:0D1193000029E034FF8F82F583E40205C1DE
:101A8000E4FF120569600A0F740129F9E43AFA804B
:061A9000F1EF3395E0FECA
:011A9600222D
:0B06ED00900022EBF0A3EAF0A3E9F07C
:1006F800A3120690402DF85490002912069000008D
:100708000000782D7C007D017BFF7A19798D7E00B1
:100718007F10120521783D7C007D017BFF7A1979D5
:100728009D7E007F10120521784D7C007D017BFFA6
:100738007A1979AD7E007F10120521E490006AF0E5
:10074800A3742BF0A3F0900095120690000000000F
:10075800E4900069F0900022E0FBA3E0FAA3E0F93E
:10076800121A8090006AEFF090009512069000002F
:100778000000E4900065F0900065E0FFC364809499
:100788008A5027EF3395E0FEEF7802C333CE33CE9D
:10079800D8F9246DF58274003EF5831206900000A6
:1007A8000000900065E004F080CDE4900065F090D2
:1007B800006AE0FF900065E0FEC3EF6480F8EE6435
:1007C80080984003020B4A9000221219ECEF4E70F9
:1007D8000302087C900022E0FBA3E0FAA3E0F99072
:1007E8000065E0FF3395E08F82F583120582FFC331
:1007F80094304056EFD394395050900065E0FF3361
:1008080095E08F82F583120582FF3395E0FEEF2491
:10081800D0FDEE34FFFC120330C004C005C006C092
:1008280007E4FFFE7D207C41900029E0F8A3E0F971
:10083800A3E0FAA3E0FB1200FBD003D002D001D062
:100848000012000A900029120684900022E0FBA3FF
:10085800E0FAA3E0F9900065E0FFFD3395E08D82B2
:10086800F583120582B42E0C900066EFF0A3740194
:10087800F0020B41900022E0FBA3E0FAA3E0F9901C
:100888000065E01219F5EF4E602A90006AE014FF47
:10089800900065E0FE6F601C900022E0FBA3E0FA88
:1008A800A3E0F9EEFF3395E08F82F58312058260AD
:1008B80003020B41900022E0FBA3E0FAA3E0F990C9
:1008C8000065E0FFFD3395E08D82F58312058264B3
:1008D80028600302098090006AE0FE900065E0FD50
:1008E800C3EE6480F8ED648098502B900022E0FB02
:1008F800A3E0FAA3E0F9ED3395E08D82F5831205C4
:1009080082B4290A900065E0900068F080089000A1
:1009180065E004F080C0900022E0FBA3E0FAA3E0C9
:10092800F9EFFD3395E0FCE92DF9EA3CFAE92401F9
:10093800F9E43AFA90009CEBF0A3EAF0A3E9F0EFAF
:100948003395E0FE900068E0FD3395E0FCC3ED9F31
:10095800FFEC9ECF24FFCF34FF90009FF0A3EFF071
:100968007B017A00792D12188E7B017A00792D127D
:100978000BEB900029120684900067E0607B9000E2
:1009880022E0FBA3E0FAA3E09000651219BDEF4E48
:10099800900066601EE0FF3395E0FE900065E0FD84
:1009A8003395E0FCC3ED9FFFEC9ECF24FFFDEF34B1
:1009B800FF8015E0FF3395E0FE900065E0FD33957C
:1009C800E0FCC3ED9FFDEC9EFC1203309000C312C7
:1009D80006847FCD7ECC7DCC7C3D1213C690002949
:1009E800E0F8A3E0F9A3E0FAA3E0FB1200FB900013
:1009F80029120684E4900067F090006BE024D6701A
:100A080003020A9224FD603924FE7003020AD024EE
:100A1800046003020B13900029E0FCA3E0FDA3E0AF
:100A2800FEA3E0FFC004C005C006C007900069E04F
:100A3800FF3395E0FEEF7802C333CE33CED8F9808A
:100A48002C900029E0FCA3E0FDA3E0FEA3E0FF1248
:100A5800031AC004C005C006C007900069E0FF3350
:100A680095E0FEEF7802C333CE33CED8F9246DF586
:100A78008274003EF583D007D006D005D004120654
:100A880084900069E004F0020B13900069E0FF33E2
:100A980095E0FEEF7802C333CE33CED8F92469F55A
:100AA8008274003EF583C083C082E0FCA3E0FDA30E
:100AB800E0FEA3E0FF900029E0F8A3E0F9A3E0FA44
:100AC800A3E0FB1200FB803C900069E0FF3395E057
:100AD800FEEF7802C333CE33CED8F92469F5827499
:100AE800003EF583C083C082E0FCA3E0FDA3E0FEE6
:100AF800A3E0FF900029E0F8A3E0F9A3E0FAA3E05F
:100B0800FB120204D082D0831206849000291206B8
:100B1800900000000090006BE0A3F0900022E0FB42
:100B2800A3E0FAA3E0F9900065E0FF3395E08F8237
:100B3800F58312058290006BF0900065E004F002E6
:100B480007B7E4900065F0900069E0FF900065E069
:100B5800FEC3EF6480F8EE6480985056900095E0EC
:100B6800FCA3E0FDA3E0FEA3E0FFC004C005C006AF
:100B7800C007900065E0FF3395E0FEEF7802C333CD
:100B8800CE33CED8F9246DF58274003EF583E0F8B3
:100B9800A3E0F9A3E0FAA3E0FBD007D006D005D084
:100BA8000412000A900095120684900065E004F093
:100BB8008095900095E0FCA3E0FDA3E0FEA3E0FF94
:100BC800120369AB07AA0690009D7405F07D087FA3
:100BD80002121947900095E0FCA3E0FDA3E0FEA3F4
:020BE800E0FF2C
:010BEA0022E8
:0B0BEB00900099EBF0A3EAF0A3E9F002
:100BF600A3120690000000009000A4742BF0A374CA
:100C06002DF09000BB12069000000000E49000A6B4
:100C1600F0121AAC9000A1EFF0E49000A0F0900062
:100C2600A1E0FF9000A0E0FEC3EF6480F8EE6480D0
:100C3600984003020EF39000991219ECEF4E7003E0
:100C4600020CE9900099E0FBA3E0FAA3E0F990001A
:100C5600A0E0FF3395E08F82F583120582FFC394EF
:100C6600304056EFD3943950509000A0E0FF3395B2
:100C7600E08F82F583120582FF3395E0FEEF24D0E4
:100C8600FDEE34FFFC120330C004C005C006C007E9
:100C9600E4FFFE7D207C4190009CE0F8A3E0F9A3F0
:100CA600E0FAA3E0FB1200FBD003D002D001D00093
:100CB60012000A90009C120684900099E0FBA3E0C3
:100CC600FAA3E0F99000A0E0FFFD3395E08D82F5F0
:100CD60083120582B42E0C9000A2EFF0A37401F0EB
:100CE600020EEA900099E0FBA3E0FAA3E0F9900077
:100CF600A0E01219F5EF4E602A9000A1E014FF90D3
:100D060000A0E0FE6F601C900099E0FBA3E0FAA350
:100D1600E0F9EEFF3395E08F82F5831205826003DA
:100D2600020EEA9000A3E0607B900099E0FBA3E04E
:100D3600FAA3E09000A01219BDEF4E9000A2601E2B
:100D4600E0FF3395E0FE9000A0E0FD3395E0FCC3A4
:100D5600ED9FFFEC9ECF24FFFDEF34FF8015E0FFF3
:100D66003395E0FE9000A0E0FD3395E0FCC3ED9FD7
:100D7600FDEC9EFC1203309000C31206847FCD7EEC
:100D8600CC7DCC7C3D1213C690009CE0F8A3E0F924
:100D9600A3E0FAA3E0FB1200FB90009C120684E499
:100DA6009000A3F09000A4E024D67003020E3B242A
:100DB600FD603924FE7003020E7924046003020EDE
:100DC600BC90009CE0FCA3E0FDA3E0FEA3E0FFC016
:100DD60004C005C006C0079000A6E0FF3395E0FEFC
:100DE600EF7802C333CE33CED8F9802C90009CE046
:100DF600FCA3E0FDA3E0FEA3E0FF12031AC004C0BB
:100E060005C006C0079000A6E0FF3395E0FEEF7828
:100E160002C333CE33CED8F924A7F58274003EF54B
:100E260083D007D006D005D0041206849000A6E031
:100E360004F0020EBC9000A6E0FF3395E0FEEF78CA
:100E460002C333CE33CED8F924A3F58274003EF51F
:100E560083C083C082E0FCA3E0FDA3E0FEA3E0FF25
:100E660090009CE0F8A3E0F9A3E0FAA3E0FB1200EF
:100E7600FB803C9000A6E0FF3395E0FEEF7802C3CE
:100E860033CE33CED8F924A3F58274003EF583C061
:100E960083C082E0FCA3E0FDA3E0FEA3E0FF900098
:100EA6009CE0F8A3E0F9A3E0FAA3E0FB120204D069
:100EB60082D08312068490009C12069000000000E7
:100EC6009000A4E0A3F0900099E0FBA3E0FAA3E071
:100ED600F99000A0E0FF3395E08F82F5831205823A
:100EE6009000A4F09000A0E004F0020C24E490002E
:100EF600A0F09000A6E0FF9000A0E0FEC3EF6480A3
:100F0600F8EE64809850569000BBE0FCA3E0FDA389
:100F1600E0FEA3E0FFC004C005C006C0079000A025
:100F2600E0FF3395E0FEEF7802C333CE33CED8F937
:100F360024A7F58274003EF583E0F8A3E0F9A3E068
:100F4600FAA3E0FBD007D006D005D00412000A9021
:100F560000BB1206849000A0E004F080959000BBD0
:0B0F6600E0FCA3E0FDA3E0FEA3E0FF21
:010F7100225D
:100003000203D5E86480F8E933E83360110460F053
:10001300ED33EC337009E8FCE9FDEAFEEBFF220463
:1000230060DED3EB9FEA9EE99DE8C2E78CF0C2F75E
:1000330095F0400CE8CCF8E9CDF9EACEFAEBCFFB2A
:100043001203A085D0F05804700320D5B3E80470E0
:10005300075002B2D50203DF92D5EC0460F7E4CC7B
:10006300C0E0C398F8603B94186008400DD0E0FBF3
:100073000203B7E4FBFAC9FC8028E830E406E4C9CC
:10008300FBE4CAFCE830E305E4C9CACBFCE8540747
:100093006010F8C3E913F9EA13FAEB13FBEC13FC52
:1000A300D8F130F52FC3E49CFCEF9BFFEE9AFEEDF5
:1000B30099FDD0E0FBEF4E4D4C701222DB0302039F
:1000C300DCEC2CFCEF33FFEE33FEED33FDED30E7DC
:1000D300EB0203B7EF2BFFEE3AFEED39FDD0E0FB69
:1000E30050130BBB00030203DFED13FDEE13FEEF12
:0800F30013FFEC13FC0203B73C
:1000FB00EC4D6011E8497017ED33EC3304600DE4FF
:10010B00FCFFFEFD22E933E8330470F80203D5123D
:10011B0003A058046009E4CC24815006285009023E
:10012B0003DF2840030203DCC0E0EB4A7044B980D4
:10013B0006D0E0FB0203CBEF4E701CBD8008EBFF3B
:10014B00EAFEE9FD80EBE98DF0A4FEE5F00201E4A7
:10015B00E9CDF9EAFEEBFFEF89F0A4FCE5F0CE89DF
:10016B00F0A42EFFE435F0CD89F0A42DFEE435F09C
:10017B008067EF4E7005BD80D780C3EF8BF0A4ACCA
:10018B00F0EE8BF0A42CFCE435F0F8EF8AF0A42C05
:10019B00E5F038FCE433CB8DF0A42CFCE5F03BF818
:1001AB00EE8AF0A42CFCE5F038F8E433CF89F0A408
:1001BB002CFCE5F038CF3400CE89F0A42FFFE5F00E
:1001CB003EFEE433C98DF0A42EFEE5F039CD8AF066
:1001DB00A42FFFE5F03EFEE43DFD33D0E0FB5007DE
:1001EB000BBB000F0203DFEC2CFCEF33FFEE33FEF7
:0601FB00ED33FD0203B725
:100201000203DFEC5D046005E8590470030203D5C5
:100211001203A0580460F6EC4860F2EC7004FDFE95
:10022100FF22C860DB2481C85009C39860025006D0
:100231000203DC9850CAF582E9294B4A7005AB826A
:100241000203CB75F0007C1A7880C3EF9BEE9AED28
:1002510099400DC3EF9BFFEE9AFEED99FDE842F048
:10026100DC23ACF0D0E0FFD0E0FED0E0FDAB82209B
:10027100E7101BEB60BAEC2CFCEF33FFEE33FEED25
:1002810033FD0203B7E803F830E705C0F075F0006D
:10029100EF2FFFEE33FEED33FD40B830E7C280AA09
:1002A10074F8CC6480CCC86480C8F58204604FC304
:1002B100EB9FF5F0EA9E42F0E99D42F0E89C45F0A3
:1002C100603C501DE5825FFFE582D313CB5BCBF42D
:1002D1002B5582FB50280ABA002409B90020088056
:1002E1001DE5825BFBE582D313CF5FCFF4C3132FF0
:1002F1005582FF50090EBE00050DBD00010CC3EB78
:100301009FF5F0EA9E42F0E99D42F0E89C45F060DD
:0903110007CC4820E701B3EC22FF
:10031A00ED33EC33600A047003BD8004ECB2E7FCF1
:01032A0022B0
:10032B0075F020800E75F010800575F0087D007E4D
:10033B00007F003392D530D50312064AEC334010C0
:10034B00EF33FFEE33FEED33FDEC33FCD5F0ED2256
:0E035B00E5F0247EA2D513CC92E7CDCEFF2292
:10036900EDD2E7CD33EC3392D524814006E4FFFE8C
:10037900FDFC22FCE4CFCECDCC24E0501174FF80EB
:10038900EDC3CC13CCCD13CDCE13CECF13CF047088
:07039900F030D5DE02064A38
:1013C6009000BF120684E4FFFE7D807C3F9000BF44
:1013D600E0F8A3E0F9A3E0FAA3E0FB1202A170068D
:1013E6009000BF0215209000BFE0FCA3E0FDA3E043
:1013F600FEA3E0FF1203EAFBA3E0FCA3E0FDA3E0EB
:10140600FEA3E0FF1203EAFFB40108E4FFFE7D80BD
:101416007C3F22EF64046029EB64046024EBB40192
:1014260030E4FFFEFDFC9000C3E0F8A3E0F9A3E082
:10143600FAA3E0FB1202A160084006E4FFFEFDFCF1
:10144600229000C3120690FFFFFFFF9000C3021513
:1014560020E49000C7F0A3F0FFFEFDFC9000BFE083
:10146600F8A3E0F9A3E0FAA3E0FB1202A1505F9013
:1014760000C3E0FCA3E0FDA3E0FEA3E0FF120369C6
:101486009000C7EEF0A3EFF0FDCCEECCEC120330EB
:10149600C8ECC8C9EDC9CAEECACBEFCB9000C3E011
:1014A600FCA3E0FDA3E0FEA3E0FF120006E4FBFAC6
:1014B600F9F81202A1708A9000BFE0FCA3E0FDA338
:1014C600E0FEA3E0FF12031A9000BF12068490000C
:1014D600BFE0FCA3E0FDA3E0FEA3E0FF12156090D1
:1014E60000C3E0F8A3E0F9A3E0FAA3E0FB1200FBD7
:1014F6001217969000C31206849000C8E030E017D9
:101506009000C3E0FCA3E0FDA3E0FEA3E0FF12030E
:101516001A9000C31206849000C3E0FCA3E0FDA36A
:06152600E0FEA3E0FF223D
:1003A000E9D2E7C933E833F892D5EDD2E7CD33ECA3
:0703B00033FC5002B2D5221C
:1003B700EC30E7100FBF000C0EBE00080DBD0004A7
:1003C7000BEB6014A2D5EB13FCED92E7FD2274FF53
:1003D700FCFDFEFF22E480F8A2D574FF13FC7D80AC
:0303E700E480EFC0
:1003EA00ED33EC33601004700FED547F7005740226
:0A03FA0092E0227404220422E4229F
:10175E0033DA929E35B16011377FE5FE39218489E7
:10176E003AAEC3FF3C1D955B3D6358473E75FDF099
:10177E003F3172183F800000C2D50203DF0203D54D
:10178E00BD80FA50F30203DCED33EC330460F17BE1
:10179E003B7AAA79B8783F1200FBED33EC3392D541
:1017AE00247B5011A2D570DB500BED4480240450E5
:1017BE0004A2D580CEEFFBEEFAEDF9ECF812036938
:1017CE00EFF582F404FC12033512000AC082901762
:1017DE005E7409120413ED33CC33D0F092D525F09C
:0A17EE00A2D57001C313CC13FD2235
:10152C003E9248DA3ECCCCCD3F2AAAAB400000001C
:10153C003F8000003F9837F03FB504F33FD744FCA1
:10154C003E3172173EB172173F0515913EDE5BD9E5
:10155C00D2008002C200EDD2E7F8CD33EC33047038
:10156C000BBD800592D50203DF0203D540FBD314DB
:10157C0060F2F5F07C3FEE7A00C39496C8948B40F1
:10158C00230AC89469C8941A401A0AC89468C89463
:10159C001F40110AC8945AC89425400805F07A00D7
:1015AC00CDC2E7CDC0F09000C9120684EA2323C057
:1015BC00E0243CF582E43415F58312067412000A1B
:1015CC00ECC0E0EDC0E0EEC0E0EFC0E012065890D9
:1015DC0000C9120668120006D0E0FBD0E0FAD0E099
:1015EC00F9D0E0B2E7F81202049000C91206849018
:1015FC00152C74031204049000C91206681200FB27
:10160C00D0E0600F2448F582E43415F5831206749B
:10161C0012000A9000C9120684D0E0C3947FFDE446
:10162C009400FC1203307B187A727931783F1200E7
:10163C00FB9000C912066812000A30000B7BD97AA5
:09164C005B79DE783E1200FB22FE
:10040400C0E0EFFBEEFAEDF9ECF81200FBD0E0F5FA
:10041400F0EFFBEEFAEDF9ECF8120658A3A3A3A350
:10042400E8C0E0E9C0E0EAC0E0EBC0E0C0F01200E0
:10043400FB120674A3A3A3A312000AD0F0D0E0FB1E
:0D044400D0E0FAD0E0F9D0E0F8D5F0D422F5
:10045100E709F608DFFA8046E709F208DFFA803E8D
:1004610088828C83E709F0A3DFFA8032E309F6087A
:10047100DFFA8078E309F208DFFA807088828C83E2
:10048100E309F0A3DFFA806489828A83E0A3F60896
:10049100DFFA805889828A83E0A3F208DFFA804C70
:1004A10080D280FA80C680D4806980F28033801047
:1004B10080A680EA809A80A880DA80E280CA8033B0
:1004C10089828A83ECFAE493A3C8C582C8CCC58328
:1004D100CCF0A3C8C582C8CCC583CCDFE9DEE780F8
:1004E1000D89828A83E493A3F608DFF9ECFAA9F077
:1004F100EDFB2289828A83ECFAE0A3C8C582C8CCCD
:10050100C583CCF0A3C8C582C8CCC583CCDFEADEE5
:10051100E880DB89828A83E493A3F208DFF980CC47
:1005210088F0EF60010E4E60C388F0ED2402B40440
:100531000050B9F582EB2402B4040050AF232345E7
:0605410082239004A17367
:10054700C2D530F707B2D563F0FF05F030E70CB23C
:10055700D5F4048463F0FF05F080018430D502F4FC
:0205670004226C
:10056900BB010689828A83E0225002E722BBFE0290
:09057900E32289828A83E49322C3
:10058200BB010CE58229F582E5833AF583E022502E
:1005920006E92582F8E622BBFE06E92582F8E22278
:0D05A200E58229F582E5833AF583E4932292
:1005AF00BB010689828A83F0225002F722BBFE012B
:0205BF00F32225
:1005C100F8BB010DE58229F582E5833AF583E8F070
:1005D100225006E92582C8F622BBFE05E92582C81C
:0205E100F22204
:1005E300EF8DF0A4A8F0CF8CF0A428CE8DF0A42E2C
:0205F300FE22E6
:1005F500BC000BBE0029EF8DF084FFADF022E4CCEA
:10060500F875F008EF2FFFEE33FEEC33FCEE9DECB2
:10061500984005FCEE9DFE0FD5F0E9E4CEFD22EDF8
:10062500F8F5F0EE8420D21CFEADF075F008EF2F42
:10063500FFED33FD4007985006D5F0F222C398FD33
:050645000FD5F0EA22D0
:0E064A00C3E49FFFE49EFEE49DFDE49CFC22C1
:10065800E493FC740193FD740293FE740393FF22E8
:0C066800E0F8A3E0F9A3E0FAA3E0FB2215
:10067400E493F8740193F9740293FA740393FB22DC
:0C068400ECF0A3EDF0A3EEF0A3EFF022E9
:10069000A8828583F0D083D0821206A71206A71203
:1006A00006A71206A7E473E493A3C583C5F0C58328
:1006B000C8C582C8F0A3C583C5F0C583C8C582C8B4
:0106C0002217
:10188E00900099EBF0A3EAF0A3E9F0E49000A1F048
:10189E00A3F090009F74FFF5F01206D745F0603C60
:1018AE0090009CE0FBA3E0FAA3E0F9120569FF901B
:1018BE000099E0FBA3E0FAA3E0F99000A1E475F033
:1018CE00011206D785F082F583EF1205C1EF60C2D3
:1018DE0090009DE475F0011206C180B6900099E06B
:0818EE00FBA3E0FAA3E0F922DC
:101AAC00E4FFFE120569600C0FEF70010E09E9707E
:051ABC00F20A80EF2298
:1006C100C5F0F8A3E028F0C5F0F8E58215827002C4
:0606D1001583E038F02261
:1006D700A3F8E0C5F025F0F0E582158270021583D6
:0606E700E0C838F0E82233
:00000001FF
